{
  "contractName": "ReportHelper",
  "abi": [
    {
      "anonymous": false,
      "inputs": [
        {
          "indexed": true,
          "internalType": "address",
          "name": "previousOwner",
          "type": "address"
        },
        {
          "indexed": true,
          "internalType": "address",
          "name": "newOwner",
          "type": "address"
        }
      ],
      "name": "OwnershipTransferred",
      "type": "event"
    },
    {
      "constant": true,
      "inputs": [
        {
          "internalType": "string",
          "name": "",
          "type": "string"
        },
        {
          "internalType": "uint256",
          "name": "",
          "type": "uint256"
        }
      ],
      "name": "countryToReports",
      "outputs": [
        {
          "internalType": "uint256",
          "name": "",
          "type": "uint256"
        }
      ],
      "payable": false,
      "stateMutability": "view",
      "type": "function"
    },
    {
      "constant": false,
      "inputs": [
        {
          "internalType": "uint256",
          "name": "_reportId",
          "type": "uint256"
        },
        {
          "internalType": "string",
          "name": "_record_hash",
          "type": "string"
        }
      ],
      "name": "createNewRecord",
      "outputs": [],
      "payable": false,
      "stateMutability": "nonpayable",
      "type": "function"
    },
    {
      "constant": false,
      "inputs": [
        {
          "internalType": "uint256",
          "name": "_localPatientId",
          "type": "uint256"
        },
        {
          "internalType": "uint8",
          "name": "_status",
          "type": "uint8"
        },
        {
          "internalType": "string",
          "name": "_location",
          "type": "string"
        },
        {
          "internalType": "string",
          "name": "_firstReport_hash",
          "type": "string"
        }
      ],
      "name": "createNewReport",
      "outputs": [
        {
          "internalType": "uint256",
          "name": "",
          "type": "uint256"
        }
      ],
      "payable": false,
      "stateMutability": "nonpayable",
      "type": "function"
    },
    {
      "constant": true,
      "inputs": [],
      "name": "isOwner",
      "outputs": [
        {
          "internalType": "bool",
          "name": "",
          "type": "bool"
        }
      ],
      "payable": false,
      "stateMutability": "view",
      "type": "function"
    },
    {
      "constant": true,
      "inputs": [],
      "name": "owner",
      "outputs": [
        {
          "internalType": "address",
          "name": "",
          "type": "address"
        }
      ],
      "payable": false,
      "stateMutability": "view",
      "type": "function"
    },
    {
      "constant": false,
      "inputs": [],
      "name": "renounceOwnership",
      "outputs": [],
      "payable": false,
      "stateMutability": "nonpayable",
      "type": "function"
    },
    {
      "constant": true,
      "inputs": [
        {
          "internalType": "address",
          "name": "",
          "type": "address"
        },
        {
          "internalType": "uint256",
          "name": "",
          "type": "uint256"
        }
      ],
      "name": "reporterToReports",
      "outputs": [
        {
          "internalType": "uint256",
          "name": "",
          "type": "uint256"
        }
      ],
      "payable": false,
      "stateMutability": "view",
      "type": "function"
    },
    {
      "constant": true,
      "inputs": [
        {
          "internalType": "uint256",
          "name": "",
          "type": "uint256"
        }
      ],
      "name": "reports",
      "outputs": [
        {
          "internalType": "address",
          "name": "reporter",
          "type": "address"
        },
        {
          "internalType": "uint256",
          "name": "reportId",
          "type": "uint256"
        },
        {
          "internalType": "uint256",
          "name": "localPatientId",
          "type": "uint256"
        },
        {
          "internalType": "string",
          "name": "firstReport_hash",
          "type": "string"
        },
        {
          "internalType": "string",
          "name": "location",
          "type": "string"
        },
        {
          "internalType": "enum ReportFactory.Status",
          "name": "status",
          "type": "uint8"
        }
      ],
      "payable": false,
      "stateMutability": "view",
      "type": "function"
    },
    {
      "constant": true,
      "inputs": [
        {
          "internalType": "uint256",
          "name": "",
          "type": "uint256"
        }
      ],
      "name": "statusToCount",
      "outputs": [
        {
          "internalType": "uint256",
          "name": "",
          "type": "uint256"
        }
      ],
      "payable": false,
      "stateMutability": "view",
      "type": "function"
    },
    {
      "constant": false,
      "inputs": [
        {
          "internalType": "address",
          "name": "newOwner",
          "type": "address"
        }
      ],
      "name": "transferOwnership",
      "outputs": [],
      "payable": false,
      "stateMutability": "nonpayable",
      "type": "function"
    },
    {
      "constant": false,
      "inputs": [
        {
          "internalType": "address",
          "name": "_reporter",
          "type": "address"
        }
      ],
      "name": "giveReportingAccess",
      "outputs": [],
      "payable": false,
      "stateMutability": "nonpayable",
      "type": "function"
    },
    {
      "constant": false,
      "inputs": [
        {
          "internalType": "uint256",
          "name": "_reportId",
          "type": "uint256"
        },
        {
          "internalType": "uint256",
          "name": "_newStatus",
          "type": "uint256"
        }
      ],
      "name": "updateStatus",
      "outputs": [],
      "payable": false,
      "stateMutability": "nonpayable",
      "type": "function"
    },
    {
      "constant": true,
      "inputs": [
        {
          "internalType": "string",
          "name": "_location",
          "type": "string"
        }
      ],
      "name": "getCountryCases",
      "outputs": [
        {
          "internalType": "uint256",
          "name": "",
          "type": "uint256"
        }
      ],
      "payable": false,
      "stateMutability": "view",
      "type": "function"
    },
    {
      "constant": true,
      "inputs": [
        {
          "internalType": "uint256",
          "name": "_reportId",
          "type": "uint256"
        }
      ],
      "name": "getReport",
      "outputs": [
        {
          "internalType": "uint256",
          "name": "",
          "type": "uint256"
        },
        {
          "internalType": "address",
          "name": "",
          "type": "address"
        },
        {
          "internalType": "string",
          "name": "",
          "type": "string"
        },
        {
          "internalType": "string",
          "name": "",
          "type": "string"
        },
        {
          "internalType": "enum ReportFactory.Status",
          "name": "",
          "type": "uint8"
        }
      ],
      "payable": false,
      "stateMutability": "view",
      "type": "function"
    },
    {
      "constant": true,
      "inputs": [
        {
          "internalType": "uint256",
          "name": "_status",
          "type": "uint256"
        },
        {
          "internalType": "uint256",
          "name": "_reportId",
          "type": "uint256"
        }
      ],
      "name": "getReport",
      "outputs": [
        {
          "internalType": "int256",
          "name": "",
          "type": "int256"
        },
        {
          "internalType": "address",
          "name": "",
          "type": "address"
        },
        {
          "internalType": "string",
          "name": "",
          "type": "string"
        },
        {
          "internalType": "string",
          "name": "",
          "type": "string"
        },
        {
          "internalType": "enum ReportFactory.Status",
          "name": "",
          "type": "uint8"
        }
      ],
      "payable": false,
      "stateMutability": "view",
      "type": "function"
    },
    {
      "constant": true,
      "inputs": [],
      "name": "getLastReportId",
      "outputs": [
        {
          "internalType": "uint256",
          "name": "",
          "type": "uint256"
        }
      ],
      "payable": false,
      "stateMutability": "view",
      "type": "function"
    },
    {
      "constant": true,
      "inputs": [
        {
          "internalType": "uint256",
          "name": "_reportId",
          "type": "uint256"
        },
        {
          "internalType": "uint256",
          "name": "_recordIndex",
          "type": "uint256"
        }
      ],
      "name": "getRecord",
      "outputs": [
        {
          "internalType": "string",
          "name": "",
          "type": "string"
        }
      ],
      "payable": false,
      "stateMutability": "view",
      "type": "function"
    },
    {
      "constant": true,
      "inputs": [
        {
          "internalType": "uint256",
          "name": "_reportId",
          "type": "uint256"
        }
      ],
      "name": "getRecordsLength",
      "outputs": [
        {
          "internalType": "uint256",
          "name": "",
          "type": "uint256"
        }
      ],
      "payable": false,
      "stateMutability": "view",
      "type": "function"
    }
  ],
  "bytecode": "0x6080604052336000806101000a81548173ffffffffffffffffffffffffffffffffffffffff021916908373ffffffffffffffffffffffffffffffffffffffff1602179055506000809054906101000a900473ffffffffffffffffffffffffffffffffffffffff1673ffffffffffffffffffffffffffffffffffffffff16600073ffffffffffffffffffffffffffffffffffffffff167f8be0079c531659141344cd1fd0a4f28419497f9722a3daafe3b4186f6b6457e060405160405180910390a361213b806100cf6000396000f3fe608060405234801561001057600080fd5b50600436106101165760003560e01c806393bc351c116100a2578063c942adf711610071578063c942adf714610855578063dae625b7146109be578063e27c4bfc14610a20578063e2f3182914610aa3578063f2fde38b14610adb57610116565b806393bc351c146105d65780639563213b1461061a578063b9052b231461065c578063be87bcfc146106e957610116565b80634e7f9b19116100e95780634e7f9b1914610325578063715018a61461048757806380a98299146104915780638da5cb5b1461056a5780638f32d59b146105b457610116565b8063016534c31461011b57806312ab53eb146101395780631c7b96181461017b5780633340650214610274575b600080fd5b610123610b1f565b6040518082815260200191505060405180910390f35b6101656004803603602081101561014f57600080fd5b8101908080359060200190929190505050610b6c565b6040518082815260200191505060405180910390f35b61025e6004803603608081101561019157600080fd5b8101908080359060200190929190803560ff169060200190929190803590602001906401000000008111156101c557600080fd5b8201836020820111156101d757600080fd5b803590602001918460018302840111640100000000831117156101f957600080fd5b90919293919293908035906020019064010000000081111561021a57600080fd5b82018360208201111561022c57600080fd5b8035906020019184600183028401116401000000008311171561024e57600080fd5b9091929391929390505050610b97565b6040518082815260200191505060405180910390f35b6102aa6004803603604081101561028a57600080fd5b810190808035906020019092919080359060200190929190505050610fea565b6040518080602001828103825283818151815260200191508051906020019080838360005b838110156102ea5780820151818401526020810190506102cf565b50505050905090810190601f1680156103175780820380516001836020036101000a031916815260200191505b509250505060405180910390f35b6103516004803603602081101561033b57600080fd5b81019080803590602001909291905050506110c0565b604051808681526020018573ffffffffffffffffffffffffffffffffffffffff1673ffffffffffffffffffffffffffffffffffffffff16815260200180602001806020018460028111156103a157fe5b60ff168152602001838103835286818151815260200191508051906020019080838360005b838110156103e15780820151818401526020810190506103c6565b50505050905090810190601f16801561040e5780820380516001836020036101000a031916815260200191505b50838103825285818151815260200191508051906020019080838360005b8381101561044757808201518184015260208101905061042c565b50505050905090810190601f1680156104745780820380516001836020036101000a031916815260200191505b5097505050505050505060405180910390f35b61048f6112d9565b005b610554600480360360408110156104a757600080fd5b81019080803590602001906401000000008111156104c457600080fd5b8201836020820111156104d657600080fd5b803590602001918460018302840111640100000000831117156104f857600080fd5b91908080601f016020809104026020016040519081016040528093929190818152602001838380828437600081840152601f19601f820116905080830192505050505050509192919290803590602001909291905050506113a9565b6040518082815260200191505060405180910390f35b6105726113ed565b604051808273ffffffffffffffffffffffffffffffffffffffff1673ffffffffffffffffffffffffffffffffffffffff16815260200191505060405180910390f35b6105bc611416565b604051808215151515815260200191505060405180910390f35b610618600480360360208110156105ec57600080fd5b81019080803573ffffffffffffffffffffffffffffffffffffffff16906020019092919050505061146d565b005b6106466004803603602081101561063057600080fd5b81019080803590602001909291905050506114d9565b6040518082815260200191505060405180910390f35b6106d36004803603602081101561067257600080fd5b810190808035906020019064010000000081111561068f57600080fd5b8201836020820111156106a157600080fd5b803590602001918460018302840111640100000000831117156106c357600080fd5b90919293919293905050506114f1565b6040518082815260200191505060405180910390f35b61071f600480360360408110156106ff57600080fd5b810190808035906020019092919080359060200190929190505050611526565b604051808681526020018573ffffffffffffffffffffffffffffffffffffffff1673ffffffffffffffffffffffffffffffffffffffff168152602001806020018060200184600281111561076f57fe5b60ff168152602001838103835286818151815260200191508051906020019080838360005b838110156107af578082015181840152602081019050610794565b50505050905090810190601f1680156107dc5780820380516001836020036101000a031916815260200191505b50838103825285818151815260200191508051906020019080838360005b838110156108155780820151818401526020810190506107fa565b50505050905090810190601f1680156108425780820380516001836020036101000a031916815260200191505b5097505050505050505060405180910390f35b6108816004803603602081101561086b57600080fd5b8101908080359060200190929190505050611991565b604051808773ffffffffffffffffffffffffffffffffffffffff1673ffffffffffffffffffffffffffffffffffffffff16815260200186815260200185815260200180602001806020018460028111156108d757fe5b60ff168152602001838103835286818151815260200191508051906020019080838360005b838110156109175780820151818401526020810190506108fc565b50505050905090810190601f1680156109445780820380516001836020036101000a031916815260200191505b50838103825285818151815260200191508051906020019080838360005b8381101561097d578082015181840152602081019050610962565b50505050905090810190601f1680156109aa5780820380516001836020036101000a031916815260200191505b509850505050505050505060405180910390f35b610a0a600480360360408110156109d457600080fd5b81019080803573ffffffffffffffffffffffffffffffffffffffff16906020019092919080359060200190929190505050611b37565b6040518082815260200191505060405180910390f35b610aa160048036036040811015610a3657600080fd5b810190808035906020019092919080359060200190640100000000811115610a5d57600080fd5b820183602082011115610a6f57600080fd5b80359060200191846001830284011164010000000083111715610a9157600080fd5b9091929391929390505050611b65565b005b610ad960048036036040811015610ab957600080fd5b810190808035906020019092919080359060200190929190505050611c39565b005b610b1d60048036036020811015610af157600080fd5b81019080803573ffffffffffffffffffffffffffffffffffffffff169060200190929190505050611d9a565b005b60006001600460003373ffffffffffffffffffffffffffffffffffffffff1673ffffffffffffffffffffffffffffffffffffffff1681526020019081526020016000208054905003905090565b600060018281548110610b7b57fe5b9060005260206000209060070201600501805490509050919050565b60003360011515600260008373ffffffffffffffffffffffffffffffffffffffff1673ffffffffffffffffffffffffffffffffffffffff16815260200190815260200160002060009054906101000a900460ff16151514610c60576040517f08c379a000000000000000000000000000000000000000000000000000000000815260040180806020018281038252600e8152602001807f4e6f74205065726d69747465642100000000000000000000000000000000000081525060200191505060405180910390fd5b610c68611eaf565b8881604001818152505033816000019073ffffffffffffffffffffffffffffffffffffffff16908173ffffffffffffffffffffffffffffffffffffffff168152505084848080601f016020809104026020016040519081016040528093929190818152602001838380828437600081840152601f19601f8201169050808301925050505050505081606001819052508760ff166002811115610d0657fe5b8160c001906002811115610d1657fe5b90816002811115610d2357fe5b8152505086868080601f016020809104026020016040519081016040528093929190818152602001838380828437600081840152601f19601f820116905080830192505050505050508160800181905250600560008960ff168152602001908152602001600020600081548092919060010191905055506000600180839080600181540180825580915050906001820390600052602060002090600702016000909192909190915060008201518160000160006101000a81548173ffffffffffffffffffffffffffffffffffffffff021916908373ffffffffffffffffffffffffffffffffffffffff16021790555060208201518160010155604082015181600201556060820151816003019080519060200190610e42929190611f0d565b506080820151816004019080519060200190610e5f929190611f0d565b5060a0820151816005019080519060200190610e7c929190611f8d565b5060c08201518160060160006101000a81548160ff02191690836002811115610ea157fe5b021790555050500390508060018281548110610eb957fe5b906000526020600020906007020160010181905550336003600083815260200190815260200160002060006101000a81548173ffffffffffffffffffffffffffffffffffffffff021916908373ffffffffffffffffffffffffffffffffffffffff160217905550600460003373ffffffffffffffffffffffffffffffffffffffff1673ffffffffffffffffffffffffffffffffffffffff1681526020019081526020016000208190806001815401808255809150509060018203906000526020600020016000909192909190915055506006888860405180838380828437808301925050509250505090815260200160405180910390208190806001815401808255809150509060018203906000526020600020016000909192909190915055508093505050509695505050505050565b606060018381548110610ff957fe5b9060005260206000209060070201600501828154811061101557fe5b906000526020600020018054600181600116156101000203166002900480601f0160208091040260200160405190810160405280929190818152602001828054600181600116156101000203166002900480156110b35780601f10611088576101008083540402835291602001916110b3565b820191906000526020600020905b81548152906001019060200180831161109657829003601f168201915b5050505050905092915050565b6000806060806000600186815481106110d557fe5b906000526020600020906007020160020154600187815481106110f457fe5b906000526020600020906007020160000160009054906101000a900473ffffffffffffffffffffffffffffffffffffffff166001888154811061113357fe5b90600052602060002090600702016003016001898154811061115157fe5b906000526020600020906007020160040160018a8154811061116f57fe5b906000526020600020906007020160060160009054906101000a900460ff16828054600181600116156101000203166002900480601f0160208091040260200160405190810160405280929190818152602001828054600181600116156101000203166002900480156112235780601f106111f857610100808354040283529160200191611223565b820191906000526020600020905b81548152906001019060200180831161120657829003601f168201915b50505050509250818054600181600116156101000203166002900480601f0160208091040260200160405190810160405280929190818152602001828054600181600116156101000203166002900480156112bf5780601f10611294576101008083540402835291602001916112bf565b820191906000526020600020905b8154815290600101906020018083116112a257829003601f168201915b505050505091509450945094509450945091939590929450565b6112e1611416565b6112ea57600080fd5b600073ffffffffffffffffffffffffffffffffffffffff166000809054906101000a900473ffffffffffffffffffffffffffffffffffffffff1673ffffffffffffffffffffffffffffffffffffffff167f8be0079c531659141344cd1fd0a4f28419497f9722a3daafe3b4186f6b6457e060405160405180910390a360008060006101000a81548173ffffffffffffffffffffffffffffffffffffffff021916908373ffffffffffffffffffffffffffffffffffffffff160217905550565b60068280516020810182018051848252602083016020850120818352809550505050505081815481106113d857fe5b90600052602060002001600091509150505481565b60008060009054906101000a900473ffffffffffffffffffffffffffffffffffffffff16905090565b60008060009054906101000a900473ffffffffffffffffffffffffffffffffffffffff1673ffffffffffffffffffffffffffffffffffffffff163373ffffffffffffffffffffffffffffffffffffffff1614905090565b611475611416565b61147e57600080fd5b6001600260008373ffffffffffffffffffffffffffffffffffffffff1673ffffffffffffffffffffffffffffffffffffffff16815260200190815260200160002060006101000a81548160ff02191690831515021790555050565b60056020528060005260406000206000915090505481565b600060068383604051808383808284378083019250505092505050908152602001604051809103902080549050905092915050565b6000806060806000866001878154811061153c57fe5b906000526020600020906007020160060160009054906101000a900460ff16600281111561156657fe5b1415611779576001868154811061157957fe5b9060005260206000209060070201600201546001878154811061159857fe5b906000526020600020906007020160000160009054906101000a900473ffffffffffffffffffffffffffffffffffffffff16600188815481106115d757fe5b9060005260206000209060070201600301600189815481106115f557fe5b906000526020600020906007020160040160018a8154811061161357fe5b906000526020600020906007020160060160009054906101000a900460ff16828054600181600116156101000203166002900480601f0160208091040260200160405190810160405280929190818152602001828054600181600116156101000203166002900480156116c75780601f1061169c576101008083540402835291602001916116c7565b820191906000526020600020905b8154815290600101906020018083116116aa57829003601f168201915b50505050509250818054600181600116156101000203166002900480601f0160208091040260200160405190810160405280929190818152602001828054600181600116156101000203166002900480156117635780601f1061173857610100808354040283529160200191611763565b820191906000526020600020905b81548152906001019060200180831161174657829003601f168201915b5050505050915094509450945094509450611987565b7fffffffffffffffffffffffffffffffffffffffffffffffffffffffffffffffff600187815481106117a757fe5b906000526020600020906007020160000160009054906101000a900473ffffffffffffffffffffffffffffffffffffffff16600188815481106117e657fe5b90600052602060002090600702016003016001898154811061180457fe5b906000526020600020906007020160040160018a8154811061182257fe5b906000526020600020906007020160060160009054906101000a900460ff16849450828054600181600116156101000203166002900480601f0160208091040260200160405190810160405280929190818152602001828054600181600116156101000203166002900480156118d95780601f106118ae576101008083540402835291602001916118d9565b820191906000526020600020905b8154815290600101906020018083116118bc57829003601f168201915b50505050509250818054600181600116156101000203166002900480601f0160208091040260200160405190810160405280929190818152602001828054600181600116156101000203166002900480156119755780601f1061194a57610100808354040283529160200191611975565b820191906000526020600020905b81548152906001019060200180831161195857829003601f168201915b50505050509150945094509450945094505b9295509295909350565b6001818154811061199e57fe5b90600052602060002090600702016000915090508060000160009054906101000a900473ffffffffffffffffffffffffffffffffffffffff1690806001015490806002015490806003018054600181600116156101000203166002900480601f016020809104026020016040519081016040528092919081815260200182805460018160011615610100020316600290048015611a7c5780601f10611a5157610100808354040283529160200191611a7c565b820191906000526020600020905b815481529060010190602001808311611a5f57829003601f168201915b505050505090806004018054600181600116156101000203166002900480601f016020809104026020016040519081016040528092919081815260200182805460018160011615610100020316600290048015611b1a5780601f10611aef57610100808354040283529160200191611b1a565b820191906000526020600020905b815481529060010190602001808311611afd57829003601f168201915b5050505050908060060160009054906101000a900460ff16905086565b60046020528160005260406000208181548110611b5057fe5b90600052602060002001600091509150505481565b6003600084815260200190815260200160002060009054906101000a900473ffffffffffffffffffffffffffffffffffffffff1673ffffffffffffffffffffffffffffffffffffffff163373ffffffffffffffffffffffffffffffffffffffff1614611bd057600080fd5b600060018481548110611bdf57fe5b9060005260206000209060070201905080600501838390918060018154018082558091505090600182039060005260206000200160009091929390919293909192909192509190611c31929190611fed565b505050505050565b6003600083815260200190815260200160002060009054906101000a900473ffffffffffffffffffffffffffffffffffffffff1673ffffffffffffffffffffffffffffffffffffffff163373ffffffffffffffffffffffffffffffffffffffff1614611ca457600080fd5b600060018381548110611cb357fe5b906000526020600020906007020190508060060160009054906101000a900460ff166002811115611ce057fe5b826002811115611cec57fe5b6002811115611cf757fe5b1415611d0257600080fd5b600560008260060160009054906101000a900460ff166002811115611d2357fe5b81526020019081526020016000206000815480929190600190039190505550816002811115611d4e57fe5b8160060160006101000a81548160ff02191690836002811115611d6d57fe5b02179055506005600083815260200190815260200160002060008154809291906001019190505550505050565b611da2611416565b611dab57600080fd5b611db481611db7565b50565b600073ffffffffffffffffffffffffffffffffffffffff168173ffffffffffffffffffffffffffffffffffffffff161415611df157600080fd5b8073ffffffffffffffffffffffffffffffffffffffff166000809054906101000a900473ffffffffffffffffffffffffffffffffffffffff1673ffffffffffffffffffffffffffffffffffffffff167f8be0079c531659141344cd1fd0a4f28419497f9722a3daafe3b4186f6b6457e060405160405180910390a3806000806101000a81548173ffffffffffffffffffffffffffffffffffffffff021916908373ffffffffffffffffffffffffffffffffffffffff16021790555050565b6040518060e00160405280600073ffffffffffffffffffffffffffffffffffffffff168152602001600081526020016000815260200160608152602001606081526020016060815260200160006002811115611f0757fe5b81525090565b828054600181600116156101000203166002900490600052602060002090601f016020900481019282601f10611f4e57805160ff1916838001178555611f7c565b82800160010185558215611f7c579182015b82811115611f7b578251825591602001919060010190611f60565b5b509050611f89919061206d565b5090565b828054828255906000526020600020908101928215611fdc579160200282015b82811115611fdb578251829080519060200190611fcb929190611f0d565b5091602001919060010190611fad565b5b509050611fe99190612092565b5090565b828054600181600116156101000203166002900490600052602060002090601f016020900481019282601f1061202e57803560ff191683800117855561205c565b8280016001018555821561205c579182015b8281111561205b578235825591602001919060010190612040565b5b509050612069919061206d565b5090565b61208f91905b8082111561208b576000816000905550600101612073565b5090565b90565b6120bb91905b808211156120b757600081816120ae91906120be565b50600101612098565b5090565b90565b50805460018160011615610100020316600290046000825580601f106120e45750612103565b601f016020900490600052602060002090810190612102919061206d565b5b5056fea265627a7a723158206839c56316b32807a306bcec2a37c73e0c47b0180f19a84ceac2938413f263c964736f6c63430005100032",
  "source": "pragma solidity >= 0.4.22;\r\n\r\nimport \"./reportfactory.sol\";\r\n\r\ncontract ReportHelper is ReportFactory{\r\n    \r\n    function giveReportingAccess(address _reporter) external onlyOwner{\r\n        reporterToVerified[_reporter] = true;\r\n    }\r\n    \r\n    function updateStatus(uint _reportId, uint _newStatus) external{\r\n        require(msg.sender == reportToReporter[_reportId]);\r\n        \r\n        Report storage report = reports[_reportId];\r\n        \r\n        require(Status(_newStatus) != report.status);\r\n        \r\n        statusToCount[uint(report.status)]--;\r\n\r\n        report.status = Status(_newStatus);\r\n    \r\n        statusToCount[_newStatus]++;\r\n    }\r\n\r\n    function getCountryCases(string calldata _location) external view returns(uint) {\r\n        return (countryToReports[_location].length);\r\n    }\r\n    \r\n    function getReport(uint _reportId) external view returns(uint, address, string memory, string memory, Status){\r\n        return(reports[_reportId].localPatientId, reports[_reportId].reporter, reports[_reportId].firstReport_hash, reports[_reportId].location, reports[_reportId].status);\r\n    }\r\n    \r\n    function getReport(uint _status, uint _reportId) external view returns(int, address, string memory, string memory, Status){\r\n        if(uint(reports[_reportId].status) == _status){\r\n            return(int(reports[_reportId].localPatientId),reports[_reportId].reporter, reports[_reportId].firstReport_hash, reports[_reportId].location, reports[_reportId].status);\r\n        }\r\n        else{\r\n            return(-1,reports[_reportId].reporter, reports[_reportId].firstReport_hash, reports[_reportId].location, reports[_reportId].status);\r\n        }\r\n    }\r\n\r\n    function getLastReportId() external view returns(uint){\r\n        return reporterToReports[msg.sender].length - 1;\r\n    }\r\n    \r\n    function getRecord(uint _reportId, uint _recordIndex) external view returns(string memory){\r\n        return(reports[_reportId].records_hash[_recordIndex]);\r\n    }\r\n\r\n    function getRecordsLength(uint _reportId) external view returns(uint){\r\n        return(reports[_reportId].records_hash.length);\r\n    }\r\n}",
  "sourcePath": "C:/Users/AnshuJalan/Documents/Ethereum/HackCovid19/contracts/reporthelper.sol",
  "compiler": {
    "name": "solc",
    "version": "0.5.16+commit.9c3226ce.Emscripten.clang"
  },
  "schemaVersion": "3.0.22",
  "updatedAt": "2020-03-26T05:53:13.057Z",
  "networkType": "ethereum",
  "devdoc": {
    "methods": {
      "isOwner()": {
        "return": "true if `msg.sender` is the owner of the contract."
      },
      "owner()": {
        "return": "the address of the owner."
      },
      "renounceOwnership()": {
        "details": "Allows the current owner to relinquish control of the contract."
      },
      "transferOwnership(address)": {
        "details": "Allows the current owner to transfer control of the contract to a newOwner.",
        "params": {
          "newOwner": "The address to transfer ownership to."
        }
      }
    }
  },
  "userdoc": {
    "methods": {
      "renounceOwnership()": {
        "notice": "Renouncing to ownership will leave the contract without an owner. It will not be possible to call the functions with the `onlyOwner` modifier anymore."
      }
    }
  }
}